{
  "_format": "hh-sol-artifact-1",
  "contractName": "BattleSystem",
  "sourceName": "contracts/BattleSystem.sol",
  "abi": [
    {
      "inputs": [
        {
          "internalType": "address",
          "name": "nftCharacterAddress",
          "type": "address"
        }
      ],
      "stateMutability": "nonpayable",
      "type": "constructor"
    },
    {
      "inputs": [
        {
          "internalType": "uint256",
          "name": "tokenId1",
          "type": "uint256"
        },
        {
          "internalType": "uint256",
          "name": "tokenId2",
          "type": "uint256"
        }
      ],
      "name": "battle",
      "outputs": [],
      "stateMutability": "nonpayable",
      "type": "function"
    }
  ],
  "bytecode": "0x608060405234801561001057600080fd5b50604051610909380380610909833981810160405281019061003291906100db565b806000806101000a81548173ffffffffffffffffffffffffffffffffffffffff021916908373ffffffffffffffffffffffffffffffffffffffff16021790555050610108565b600080fd5b600073ffffffffffffffffffffffffffffffffffffffff82169050919050565b60006100a88261007d565b9050919050565b6100b88161009d565b81146100c357600080fd5b50565b6000815190506100d5816100af565b92915050565b6000602082840312156100f1576100f0610078565b5b60006100ff848285016100c6565b91505092915050565b6107f2806101176000396000f3fe608060405234801561001057600080fd5b506004361061002b5760003560e01c80632a0c522114610030575b600080fd5b61004a60048036038101906100459190610584565b61004c565b005b3373ffffffffffffffffffffffffffffffffffffffff1660008054906101000a900473ffffffffffffffffffffffffffffffffffffffff1673ffffffffffffffffffffffffffffffffffffffff16636352211e846040518263ffffffff1660e01b81526004016100bc91906105d3565b602060405180830381865afa1580156100d9573d6000803e3d6000fd5b505050506040513d601f19601f820116820180604052508101906100fd919061064c565b73ffffffffffffffffffffffffffffffffffffffff1614806101e357503373ffffffffffffffffffffffffffffffffffffffff1660008054906101000a900473ffffffffffffffffffffffffffffffffffffffff1673ffffffffffffffffffffffffffffffffffffffff16636352211e836040518263ffffffff1660e01b815260040161018a91906105d3565b602060405180830381865afa1580156101a7573d6000803e3d6000fd5b505050506040513d601f19601f820116820180604052508101906101cb919061064c565b73ffffffffffffffffffffffffffffffffffffffff16145b610222576040517f08c379a0000000000000000000000000000000000000000000000000000000008152600401610219906106d6565b60405180910390fd5b60008060008054906101000a900473ffffffffffffffffffffffffffffffffffffffff1673ffffffffffffffffffffffffffffffffffffffff1663dabb0531856040518263ffffffff1660e01b815260040161027e91906105d3565b6040805180830381865afa15801561029a573d6000803e3d6000fd5b505050506040513d601f19601f820116820180604052508101906102be919061070b565b9150915060008060008054906101000a900473ffffffffffffffffffffffffffffffffffffffff1673ffffffffffffffffffffffffffffffffffffffff1663dabb0531866040518263ffffffff1660e01b815260040161031e91906105d3565b6040805180830381865afa15801561033a573d6000803e3d6000fd5b505050506040513d601f19601f8201168201806040525081019061035e919061070b565b9150915060008385610370919061077a565b905060008284610380919061077a565b90508082111561041a5760008054906101000a900473ffffffffffffffffffffffffffffffffffffffff1673ffffffffffffffffffffffffffffffffffffffff16630ce90ec2896040518263ffffffff1660e01b81526004016103e391906105d3565b600060405180830381600087803b1580156103fd57600080fd5b505af1158015610411573d6000803e3d6000fd5b5050505061053f565b808210156104b25760008054906101000a900473ffffffffffffffffffffffffffffffffffffffff1673ffffffffffffffffffffffffffffffffffffffff16630ce90ec2886040518263ffffffff1660e01b815260040161047b91906105d3565b600060405180830381600087803b15801561049557600080fd5b505af11580156104a9573d6000803e3d6000fd5b5050505061053e565b60008054906101000a900473ffffffffffffffffffffffffffffffffffffffff1673ffffffffffffffffffffffffffffffffffffffff16639a6bd379896040518263ffffffff1660e01b815260040161050b91906105d3565b600060405180830381600087803b15801561052557600080fd5b505af1158015610539573d6000803e3d6000fd5b505050505b5b5050505050505050565b600080fd5b6000819050919050565b6105618161054e565b811461056c57600080fd5b50565b60008135905061057e81610558565b92915050565b6000806040838503121561059b5761059a610549565b5b60006105a98582860161056f565b92505060206105ba8582860161056f565b9150509250929050565b6105cd8161054e565b82525050565b60006020820190506105e860008301846105c4565b92915050565b600073ffffffffffffffffffffffffffffffffffffffff82169050919050565b6000610619826105ee565b9050919050565b6106298161060e565b811461063457600080fd5b50565b60008151905061064681610620565b92915050565b60006020828403121561066257610661610549565b5b600061067084828501610637565b91505092915050565b600082825260208201905092915050565b7f4e6f7420746865206f776e6572206f6620636861726163746572730000000000600082015250565b60006106c0601b83610679565b91506106cb8261068a565b602082019050919050565b600060208201905081810360008301526106ef816106b3565b9050919050565b60008151905061070581610558565b92915050565b6000806040838503121561072257610721610549565b5b6000610730858286016106f6565b9250506020610741858286016106f6565b9150509250929050565b7f4e487b7100000000000000000000000000000000000000000000000000000000600052601160045260246000fd5b60006107858261054e565b91506107908361054e565b925082820261079e8161054e565b915082820484148315176107b5576107b461074b565b5b509291505056fea264697066735822122096d13540eba08b9bb7acdc92a9e9b4d3ee5817913b972da5bc3ab3aff76801f264736f6c63430008180033",
  "linkReferences": {},
  "deployedLinkReferences": {}
}