{
  "_format": "hh-sol-artifact-1",
  "contractName": "CharacterShop",
  "sourceName": "contracts/CharacterShop.sol",
  "abi": [
    {
      "inputs": [
        {
          "internalType": "address",
          "name": "nftCharacterAddress",
          "type": "address"
        },
        {
          "internalType": "uint256",
          "name": "initialPrice",
          "type": "uint256"
        }
      ],
      "stateMutability": "nonpayable",
      "type": "constructor"
    },
    {
      "inputs": [],
      "name": "buyCharacter",
      "outputs": [],
      "stateMutability": "payable",
      "type": "function"
    },
    {
      "inputs": [],
      "name": "price",
      "outputs": [
        {
          "internalType": "uint256",
          "name": "",
          "type": "uint256"
        }
      ],
      "stateMutability": "view",
      "type": "function"
    },
    {
      "inputs": [],
      "name": "withdraw",
      "outputs": [],
      "stateMutability": "nonpayable",
      "type": "function"
    }
  ],
  "bytecode": "0x608060405234801561001057600080fd5b506040516106c93803806106c983398181016040528101906100329190610121565b816000806101000a81548173ffffffffffffffffffffffffffffffffffffffff021916908373ffffffffffffffffffffffffffffffffffffffff1602179055508060018190555060006002819055505050610161565b600080fd5b600073ffffffffffffffffffffffffffffffffffffffff82169050919050565b60006100b88261008d565b9050919050565b6100c8816100ad565b81146100d357600080fd5b50565b6000815190506100e5816100bf565b92915050565b6000819050919050565b6100fe816100eb565b811461010957600080fd5b50565b60008151905061011b816100f5565b92915050565b6000806040838503121561013857610137610088565b5b6000610146858286016100d6565b92505060206101578582860161010c565b9150509250929050565b610559806101706000396000f3fe6080604052600436106100345760003560e01c80633ccfd60b14610039578063a035b1fe14610050578063bcece5eb1461007b575b600080fd5b34801561004557600080fd5b5061004e610085565b005b34801561005c57600080fd5b506100656101ca565b60405161007291906102e0565b60405180910390f35b6100836101d4565b005b60008054906101000a900473ffffffffffffffffffffffffffffffffffffffff1673ffffffffffffffffffffffffffffffffffffffff16638da5cb5b6040518163ffffffff1660e01b8152600401602060405180830381865afa1580156100f0573d6000803e3d6000fd5b505050506040513d601f19601f82011682018060405250810190610114919061035e565b73ffffffffffffffffffffffffffffffffffffffff163373ffffffffffffffffffffffffffffffffffffffff1614610181576040517f08c379a0000000000000000000000000000000000000000000000000000000008152600401610178906103e8565b60405180910390fd5b3373ffffffffffffffffffffffffffffffffffffffff166108fc479081150290604051600060405180830381858888f193505050501580156101c7573d6000803e3d6000fd5b50565b6000600154905090565b6001543414610218576040517f08c379a000000000000000000000000000000000000000000000000000000000815260040161020f90610454565b60405180910390fd5b6000600254905060026000815480929190610232906104a3565b919050555060008054906101000a900473ffffffffffffffffffffffffffffffffffffffff1673ffffffffffffffffffffffffffffffffffffffff1663d3db8fb033836040518363ffffffff1660e01b81526004016102929291906104fa565b600060405180830381600087803b1580156102ac57600080fd5b505af11580156102c0573d6000803e3d6000fd5b5050505050565b6000819050919050565b6102da816102c7565b82525050565b60006020820190506102f560008301846102d1565b92915050565b600080fd5b600073ffffffffffffffffffffffffffffffffffffffff82169050919050565b600061032b82610300565b9050919050565b61033b81610320565b811461034657600080fd5b50565b60008151905061035881610332565b92915050565b600060208284031215610374576103736102fb565b5b600061038284828501610349565b91505092915050565b600082825260208201905092915050565b7f4e6f7420746865206f776e657200000000000000000000000000000000000000600082015250565b60006103d2600d8361038b565b91506103dd8261039c565b602082019050919050565b60006020820190508181036000830152610401816103c5565b9050919050565b7f496e636f7272656374207061796d656e7420616d6f756e740000000000000000600082015250565b600061043e60188361038b565b915061044982610408565b602082019050919050565b6000602082019050818103600083015261046d81610431565b9050919050565b7f4e487b7100000000000000000000000000000000000000000000000000000000600052601160045260246000fd5b60006104ae826102c7565b91507fffffffffffffffffffffffffffffffffffffffffffffffffffffffffffffffff82036104e0576104df610474565b5b600182019050919050565b6104f481610320565b82525050565b600060408201905061050f60008301856104eb565b61051c60208301846102d1565b939250505056fea264697066735822122010d27f63c6f9ae7331eb65f4b76a551711c74c2035c2876f09c98db2bd3db41264736f6c63430008180033",
  "linkReferences": {},
  "deployedLinkReferences": {}
}