{
  "_format": "hh-sol-artifact-1",
  "contractName": "NFTCharacter",
  "sourceName": "contracts/NFTCharacter.sol",
  "abi": [
    {
      "inputs": [
        {
          "internalType": "address",
          "name": "initialOwner",
          "type": "address"
        }
      ],
      "stateMutability": "nonpayable",
      "type": "constructor"
    },
    {
      "inputs": [],
      "name": "ERC721EnumerableForbiddenBatchMint",
      "type": "error"
    },
    {
      "inputs": [
        {
          "internalType": "address",
          "name": "sender",
          "type": "address"
        },
        {
          "internalType": "uint256",
          "name": "tokenId",
          "type": "uint256"
        },
        {
          "internalType": "address",
          "name": "owner",
          "type": "address"
        }
      ],
      "name": "ERC721IncorrectOwner",
      "type": "error"
    },
    {
      "inputs": [
        {
          "internalType": "address",
          "name": "operator",
          "type": "address"
        },
        {
          "internalType": "uint256",
          "name": "tokenId",
          "type": "uint256"
        }
      ],
      "name": "ERC721InsufficientApproval",
      "type": "error"
    },
    {
      "inputs": [
        {
          "internalType": "address",
          "name": "approver",
          "type": "address"
        }
      ],
      "name": "ERC721InvalidApprover",
      "type": "error"
    },
    {
      "inputs": [
        {
          "internalType": "address",
          "name": "operator",
          "type": "address"
        }
      ],
      "name": "ERC721InvalidOperator",
      "type": "error"
    },
    {
      "inputs": [
        {
          "internalType": "address",
          "name": "owner",
          "type": "address"
        }
      ],
      "name": "ERC721InvalidOwner",
      "type": "error"
    },
    {
      "inputs": [
        {
          "internalType": "address",
          "name": "receiver",
          "type": "address"
        }
      ],
      "name": "ERC721InvalidReceiver",
      "type": "error"
    },
    {
      "inputs": [
        {
          "internalType": "address",
          "name": "sender",
          "type": "address"
        }
      ],
      "name": "ERC721InvalidSender",
      "type": "error"
    },
    {
      "inputs": [
        {
          "internalType": "uint256",
          "name": "tokenId",
          "type": "uint256"
        }
      ],
      "name": "ERC721NonexistentToken",
      "type": "error"
    },
    {
      "inputs": [
        {
          "internalType": "address",
          "name": "owner",
          "type": "address"
        },
        {
          "internalType": "uint256",
          "name": "index",
          "type": "uint256"
        }
      ],
      "name": "ERC721OutOfBoundsIndex",
      "type": "error"
    },
    {
      "inputs": [
        {
          "internalType": "address",
          "name": "owner",
          "type": "address"
        }
      ],
      "name": "OwnableInvalidOwner",
      "type": "error"
    },
    {
      "inputs": [
        {
          "internalType": "address",
          "name": "account",
          "type": "address"
        }
      ],
      "name": "OwnableUnauthorizedAccount",
      "type": "error"
    },
    {
      "anonymous": false,
      "inputs": [
        {
          "indexed": true,
          "internalType": "address",
          "name": "owner",
          "type": "address"
        },
        {
          "indexed": true,
          "internalType": "address",
          "name": "approved",
          "type": "address"
        },
        {
          "indexed": true,
          "internalType": "uint256",
          "name": "tokenId",
          "type": "uint256"
        }
      ],
      "name": "Approval",
      "type": "event"
    },
    {
      "anonymous": false,
      "inputs": [
        {
          "indexed": true,
          "internalType": "address",
          "name": "owner",
          "type": "address"
        },
        {
          "indexed": true,
          "internalType": "address",
          "name": "operator",
          "type": "address"
        },
        {
          "indexed": false,
          "internalType": "bool",
          "name": "approved",
          "type": "bool"
        }
      ],
      "name": "ApprovalForAll",
      "type": "event"
    },
    {
      "anonymous": false,
      "inputs": [
        {
          "indexed": true,
          "internalType": "address",
          "name": "previousOwner",
          "type": "address"
        },
        {
          "indexed": true,
          "internalType": "address",
          "name": "newOwner",
          "type": "address"
        }
      ],
      "name": "OwnershipTransferred",
      "type": "event"
    },
    {
      "anonymous": false,
      "inputs": [
        {
          "indexed": true,
          "internalType": "address",
          "name": "from",
          "type": "address"
        },
        {
          "indexed": true,
          "internalType": "address",
          "name": "to",
          "type": "address"
        },
        {
          "indexed": true,
          "internalType": "uint256",
          "name": "tokenId",
          "type": "uint256"
        }
      ],
      "name": "Transfer",
      "type": "event"
    },
    {
      "inputs": [
        {
          "internalType": "address",
          "name": "to",
          "type": "address"
        },
        {
          "internalType": "uint256",
          "name": "tokenId",
          "type": "uint256"
        }
      ],
      "name": "approve",
      "outputs": [],
      "stateMutability": "nonpayable",
      "type": "function"
    },
    {
      "inputs": [
        {
          "internalType": "address",
          "name": "caller",
          "type": "address"
        },
        {
          "internalType": "bool",
          "name": "approved",
          "type": "bool"
        }
      ],
      "name": "approveCaller",
      "outputs": [],
      "stateMutability": "nonpayable",
      "type": "function"
    },
    {
      "inputs": [
        {
          "internalType": "address",
          "name": "owner",
          "type": "address"
        }
      ],
      "name": "balanceOf",
      "outputs": [
        {
          "internalType": "uint256",
          "name": "",
          "type": "uint256"
        }
      ],
      "stateMutability": "view",
      "type": "function"
    },
    {
      "inputs": [],
      "name": "characterShop",
      "outputs": [
        {
          "internalType": "address",
          "name": "",
          "type": "address"
        }
      ],
      "stateMutability": "view",
      "type": "function"
    },
    {
      "inputs": [
        {
          "internalType": "uint256",
          "name": "tokenId",
          "type": "uint256"
        }
      ],
      "name": "getApproved",
      "outputs": [
        {
          "internalType": "address",
          "name": "",
          "type": "address"
        }
      ],
      "stateMutability": "view",
      "type": "function"
    },
    {
      "inputs": [
        {
          "internalType": "uint256",
          "name": "tokenId",
          "type": "uint256"
        }
      ],
      "name": "getCharacter",
      "outputs": [
        {
          "internalType": "uint256",
          "name": "",
          "type": "uint256"
        },
        {
          "internalType": "uint256",
          "name": "",
          "type": "uint256"
        }
      ],
      "stateMutability": "view",
      "type": "function"
    },
    {
      "inputs": [
        {
          "internalType": "address",
          "name": "owner",
          "type": "address"
        },
        {
          "internalType": "address",
          "name": "operator",
          "type": "address"
        }
      ],
      "name": "isApprovedForAll",
      "outputs": [
        {
          "internalType": "bool",
          "name": "",
          "type": "bool"
        }
      ],
      "stateMutability": "view",
      "type": "function"
    },
    {
      "inputs": [
        {
          "internalType": "uint256",
          "name": "tokenId",
          "type": "uint256"
        }
      ],
      "name": "levelUp",
      "outputs": [],
      "stateMutability": "nonpayable",
      "type": "function"
    },
    {
      "inputs": [
        {
          "internalType": "address",
          "name": "to",
          "type": "address"
        },
        {
          "internalType": "uint256",
          "name": "tokenId",
          "type": "uint256"
        }
      ],
      "name": "mint",
      "outputs": [],
      "stateMutability": "nonpayable",
      "type": "function"
    },
    {
      "inputs": [
        {
          "internalType": "address",
          "name": "to",
          "type": "address"
        },
        {
          "internalType": "uint256",
          "name": "tokenId",
          "type": "uint256"
        }
      ],
      "name": "mintFromCharacterShop",
      "outputs": [],
      "stateMutability": "nonpayable",
      "type": "function"
    },
    {
      "inputs": [],
      "name": "name",
      "outputs": [
        {
          "internalType": "string",
          "name": "",
          "type": "string"
        }
      ],
      "stateMutability": "view",
      "type": "function"
    },
    {
      "inputs": [],
      "name": "owner",
      "outputs": [
        {
          "internalType": "address",
          "name": "",
          "type": "address"
        }
      ],
      "stateMutability": "view",
      "type": "function"
    },
    {
      "inputs": [
        {
          "internalType": "uint256",
          "name": "tokenId",
          "type": "uint256"
        }
      ],
      "name": "ownerOf",
      "outputs": [
        {
          "internalType": "address",
          "name": "",
          "type": "address"
        }
      ],
      "stateMutability": "view",
      "type": "function"
    },
    {
      "inputs": [
        {
          "internalType": "uint256",
          "name": "tokenId",
          "type": "uint256"
        }
      ],
      "name": "powerUp",
      "outputs": [],
      "stateMutability": "nonpayable",
      "type": "function"
    },
    {
      "inputs": [],
      "name": "renounceOwnership",
      "outputs": [],
      "stateMutability": "nonpayable",
      "type": "function"
    },
    {
      "inputs": [
        {
          "internalType": "address",
          "name": "from",
          "type": "address"
        },
        {
          "internalType": "address",
          "name": "to",
          "type": "address"
        },
        {
          "internalType": "uint256",
          "name": "tokenId",
          "type": "uint256"
        }
      ],
      "name": "safeTransferFrom",
      "outputs": [],
      "stateMutability": "nonpayable",
      "type": "function"
    },
    {
      "inputs": [
        {
          "internalType": "address",
          "name": "from",
          "type": "address"
        },
        {
          "internalType": "address",
          "name": "to",
          "type": "address"
        },
        {
          "internalType": "uint256",
          "name": "tokenId",
          "type": "uint256"
        },
        {
          "internalType": "bytes",
          "name": "data",
          "type": "bytes"
        }
      ],
      "name": "safeTransferFrom",
      "outputs": [],
      "stateMutability": "nonpayable",
      "type": "function"
    },
    {
      "inputs": [
        {
          "internalType": "address",
          "name": "operator",
          "type": "address"
        },
        {
          "internalType": "bool",
          "name": "approved",
          "type": "bool"
        }
      ],
      "name": "setApprovalForAll",
      "outputs": [],
      "stateMutability": "nonpayable",
      "type": "function"
    },
    {
      "inputs": [
        {
          "internalType": "address",
          "name": "_characterShop",
          "type": "address"
        }
      ],
      "name": "setCharacterShop",
      "outputs": [],
      "stateMutability": "nonpayable",
      "type": "function"
    },
    {
      "inputs": [
        {
          "internalType": "bytes4",
          "name": "interfaceId",
          "type": "bytes4"
        }
      ],
      "name": "supportsInterface",
      "outputs": [
        {
          "internalType": "bool",
          "name": "",
          "type": "bool"
        }
      ],
      "stateMutability": "view",
      "type": "function"
    },
    {
      "inputs": [],
      "name": "symbol",
      "outputs": [
        {
          "internalType": "string",
          "name": "",
          "type": "string"
        }
      ],
      "stateMutability": "view",
      "type": "function"
    },
    {
      "inputs": [
        {
          "internalType": "uint256",
          "name": "index",
          "type": "uint256"
        }
      ],
      "name": "tokenByIndex",
      "outputs": [
        {
          "internalType": "uint256",
          "name": "",
          "type": "uint256"
        }
      ],
      "stateMutability": "view",
      "type": "function"
    },
    {
      "inputs": [
        {
          "internalType": "address",
          "name": "owner",
          "type": "address"
        },
        {
          "internalType": "uint256",
          "name": "index",
          "type": "uint256"
        }
      ],
      "name": "tokenOfOwnerByIndex",
      "outputs": [
        {
          "internalType": "uint256",
          "name": "",
          "type": "uint256"
        }
      ],
      "stateMutability": "view",
      "type": "function"
    },
    {
      "inputs": [
        {
          "internalType": "uint256",
          "name": "tokenId",
          "type": "uint256"
        }
      ],
      "name": "tokenURI",
      "outputs": [
        {
          "internalType": "string",
          "name": "",
          "type": "string"
        }
      ],
      "stateMutability": "view",
      "type": "function"
    },
    {
      "inputs": [],
      "name": "totalSupply",
      "outputs": [
        {
          "internalType": "uint256",
          "name": "",
          "type": "uint256"
        }
      ],
      "stateMutability": "view",
      "type": "function"
    },
    {
      "inputs": [
        {
          "internalType": "address",
          "name": "from",
          "type": "address"
        },
        {
          "internalType": "address",
          "name": "to",
          "type": "address"
        },
        {
          "internalType": "uint256",
          "name": "tokenId",
          "type": "uint256"
        }
      ],
      "name": "transferFrom",
      "outputs": [],
      "stateMutability": "nonpayable",
      "type": "function"
    },
    {
      "inputs": [
        {
          "internalType": "address",
          "name": "newOwner",
          "type": "address"
        }
      ],
      "name": "transferOwnership",
      "outputs": [],
      "stateMutability": "nonpayable",
      "type": "function"
    }
  ],
  "bytecode": "0x60806040523480156200001157600080fd5b506040516200363238038062003632833981810160405281019062000037919062000288565b806040518060400160405280600c81526020017f4e465443686172616374657200000000000000000000000000000000000000008152506040518060400160405280600381526020017f43544b00000000000000000000000000000000000000000000000000000000008152508160009081620000b5919062000534565b508060019081620000c7919062000534565b505050600073ffffffffffffffffffffffffffffffffffffffff168173ffffffffffffffffffffffffffffffffffffffff16036200013f5760006040517f1e4fbdf70000000000000000000000000000000000000000000000000000000081526004016200013691906200062c565b60405180910390fd5b62000150816200015860201b60201c565b505062000649565b6000600a60009054906101000a900473ffffffffffffffffffffffffffffffffffffffff16905081600a60006101000a81548173ffffffffffffffffffffffffffffffffffffffff021916908373ffffffffffffffffffffffffffffffffffffffff1602179055508173ffffffffffffffffffffffffffffffffffffffff168173ffffffffffffffffffffffffffffffffffffffff167f8be0079c531659141344cd1fd0a4f28419497f9722a3daafe3b4186f6b6457e060405160405180910390a35050565b600080fd5b600073ffffffffffffffffffffffffffffffffffffffff82169050919050565b6000620002508262000223565b9050919050565b620002628162000243565b81146200026e57600080fd5b50565b600081519050620002828162000257565b92915050565b600060208284031215620002a157620002a06200021e565b5b6000620002b18482850162000271565b91505092915050565b600081519050919050565b7f4e487b7100000000000000000000000000000000000000000000000000000000600052604160045260246000fd5b7f4e487b7100000000000000000000000000000000000000000000000000000000600052602260045260246000fd5b600060028204905060018216806200033c57607f821691505b602082108103620003525762000351620002f4565b5b50919050565b60008190508160005260206000209050919050565b60006020601f8301049050919050565b600082821b905092915050565b600060088302620003bc7fffffffffffffffffffffffffffffffffffffffffffffffffffffffffffffffff826200037d565b620003c886836200037d565b95508019841693508086168417925050509392505050565b6000819050919050565b6000819050919050565b6000620004156200040f6200040984620003e0565b620003ea565b620003e0565b9050919050565b6000819050919050565b6200043183620003f4565b6200044962000440826200041c565b8484546200038a565b825550505050565b600090565b6200046062000451565b6200046d81848462000426565b505050565b5b8181101562000495576200048960008262000456565b60018101905062000473565b5050565b601f821115620004e457620004ae8162000358565b620004b9846200036d565b81016020851015620004c9578190505b620004e1620004d8856200036d565b83018262000472565b50505b505050565b600082821c905092915050565b60006200050960001984600802620004e9565b1980831691505092915050565b6000620005248383620004f6565b9150826002028217905092915050565b6200053f82620002ba565b67ffffffffffffffff8111156200055b576200055a620002c5565b5b62000567825462000323565b6200057482828562000499565b600060209050601f831160018114620005ac576000841562000597578287015190505b620005a3858262000516565b86555062000613565b601f198416620005bc8662000358565b60005b82811015620005e657848901518255600182019150602085019450602081019050620005bf565b8683101562000606578489015162000602601f891682620004f6565b8355505b6001600288020188555050505b505050505050565b620006268162000243565b82525050565b60006020820190506200064360008301846200061b565b92915050565b612fd980620006596000396000f3fe608060405234801561001057600080fd5b50600436106101a95760003560e01c806370a08231116100f9578063b88d4fde11610097578063dabb053111610071578063dabb0531146104b6578063e985e9c5146104e7578063f16cfa6d14610517578063f2fde38b14610533576101a9565b8063b88d4fde1461044e578063c87b56dd1461046a578063d3db8fb01461049a576101a9565b806395d89b41116100d357806395d89b41146103dc5780639a6bd379146103fa578063a22cb46514610416578063a9961ddf14610432576101a9565b806370a0823114610384578063715018a6146103b45780638da5cb5b146103be576101a9565b806323b872dd1161016657806342842e0e1161014057806342842e0e146102ea5780634f6ccce7146103065780634f83c074146103365780636352211e14610354576101a9565b806323b872dd146102825780632f745c591461029e57806340c10f19146102ce576101a9565b806301ffc9a7146101ae57806306fdde03146101de578063081812fc146101fc578063095ea7b31461022c5780630ce90ec21461024857806318160ddd14610264575b600080fd5b6101c860048036038101906101c39190612579565b61054f565b6040516101d591906125c1565b60405180910390f35b6101e6610561565b6040516101f3919061266c565b60405180910390f35b610216600480360381019061021191906126c4565b6105f3565b6040516102239190612732565b60405180910390f35b61024660048036038101906102419190612779565b61060f565b005b610262600480360381019061025d91906126c4565b610625565b005b61026c610740565b60405161027991906127c8565b60405180910390f35b61029c600480360381019061029791906127e3565b61074d565b005b6102b860048036038101906102b39190612779565b61084f565b6040516102c591906127c8565b60405180910390f35b6102e860048036038101906102e39190612779565b6108f8565b005b61030460048036038101906102ff91906127e3565b61094f565b005b610320600480360381019061031b91906126c4565b61096f565b60405161032d91906127c8565b60405180910390f35b61033e6109e5565b60405161034b9190612732565b60405180910390f35b61036e600480360381019061036991906126c4565b610a0b565b60405161037b9190612732565b60405180910390f35b61039e60048036038101906103999190612836565b610a1d565b6040516103ab91906127c8565b60405180910390f35b6103bc610ad7565b005b6103c6610aeb565b6040516103d39190612732565b60405180910390f35b6103e4610b15565b6040516103f1919061266c565b60405180910390f35b610414600480360381019061040f91906126c4565b610ba7565b005b610430600480360381019061042b919061288f565b610ca8565b005b61044c60048036038101906104479190612836565b610cbe565b005b61046860048036038101906104639190612a04565b610d0a565b005b610484600480360381019061047f91906126c4565b610d27565b604051610491919061266c565b60405180910390f35b6104b460048036038101906104af9190612779565b610d90565b005b6104d060048036038101906104cb91906126c4565b610e6f565b6040516104de929190612a87565b60405180910390f35b61050160048036038101906104fc9190612ab0565b610f33565b60405161050e91906125c1565b60405180910390f35b610531600480360381019061052c919061288f565b610fc7565b005b61054d60048036038101906105489190612836565b61102a565b005b600061055a826110b0565b9050919050565b60606000805461057090612b1f565b80601f016020809104026020016040519081016040528092919081815260200182805461059c90612b1f565b80156105e95780601f106105be576101008083540402835291602001916105e9565b820191906000526020600020905b8154815290600101906020018083116105cc57829003601f168201915b5050505050905090565b60006105fe8261112a565b50610608826111b2565b9050919050565b610621828261061c6111ef565b6111f7565b5050565b3373ffffffffffffffffffffffffffffffffffffffff1661064582610a0b565b73ffffffffffffffffffffffffffffffffffffffff1614806106b05750600c60003373ffffffffffffffffffffffffffffffffffffffff1673ffffffffffffffffffffffffffffffffffffffff16815260200190815260200160002060009054906101000a900460ff165b6106ef576040517f08c379a00000000000000000000000000000000000000000000000000000000081526004016106e690612b9c565b60405180910390fd5b6000600b6000838152602001908152602001600020905080600001600081548092919061071b90612beb565b9190505550600a8160010160008282546107359190612c33565b925050819055505050565b6000600880549050905090565b600073ffffffffffffffffffffffffffffffffffffffff168273ffffffffffffffffffffffffffffffffffffffff16036107bf5760006040517f64a0ae920000000000000000000000000000000000000000000000000000000081526004016107b69190612732565b60405180910390fd5b60006107d383836107ce6111ef565b611209565b90508373ffffffffffffffffffffffffffffffffffffffff168173ffffffffffffffffffffffffffffffffffffffff1614610849578382826040517f64283d7b00000000000000000000000000000000000000000000000000000000815260040161084093929190612c67565b60405180910390fd5b50505050565b600061085a83610a1d565b821061089f5782826040517fa57d13dc000000000000000000000000000000000000000000000000000000008152600401610896929190612c9e565b60405180910390fd5b600660008473ffffffffffffffffffffffffffffffffffffffff1673ffffffffffffffffffffffffffffffffffffffff168152602001908152602001600020600083815260200190815260200160002054905092915050565b61090061121f565b61090a82826112a6565b604051806040016040528060018152602001600a815250600b600083815260200190815260200160002060008201518160000155602082015181600101559050505050565b61096a83838360405180602001604052806000815250610d0a565b505050565b6000610979610740565b82106109bf576000826040517fa57d13dc0000000000000000000000000000000000000000000000000000000081526004016109b6929190612c9e565b60405180910390fd5b600882815481106109d3576109d2612cc7565b5b90600052602060002001549050919050565b600d60009054906101000a900473ffffffffffffffffffffffffffffffffffffffff1681565b6000610a168261112a565b9050919050565b60008073ffffffffffffffffffffffffffffffffffffffff168273ffffffffffffffffffffffffffffffffffffffff1603610a905760006040517f89c62b64000000000000000000000000000000000000000000000000000000008152600401610a879190612732565b60405180910390fd5b600360008373ffffffffffffffffffffffffffffffffffffffff1673ffffffffffffffffffffffffffffffffffffffff168152602001908152602001600020549050919050565b610adf61121f565b610ae960006112c4565b565b6000600a60009054906101000a900473ffffffffffffffffffffffffffffffffffffffff16905090565b606060018054610b2490612b1f565b80601f0160208091040260200160405190810160405280929190818152602001828054610b5090612b1f565b8015610b9d5780601f10610b7257610100808354040283529160200191610b9d565b820191906000526020600020905b815481529060010190602001808311610b8057829003601f168201915b5050505050905090565b3373ffffffffffffffffffffffffffffffffffffffff16610bc782610a0b565b73ffffffffffffffffffffffffffffffffffffffff161480610c325750600c60003373ffffffffffffffffffffffffffffffffffffffff1673ffffffffffffffffffffffffffffffffffffffff16815260200190815260200160002060009054906101000a900460ff165b610c71576040517f08c379a0000000000000000000000000000000000000000000000000000000008152600401610c6890612b9c565b60405180910390fd5b6000600b600083815260200190815260200160002090506002816001016000828254610c9d9190612c33565b925050819055505050565b610cba610cb36111ef565b838361138a565b5050565b610cc661121f565b80600d60006101000a81548173ffffffffffffffffffffffffffffffffffffffff021916908373ffffffffffffffffffffffffffffffffffffffff16021790555050565b610d1584848461074d565b610d21848484846114f9565b50505050565b6060610d328261112a565b506000610d3d6116b0565b90506000815111610d5d5760405180602001604052806000815250610d88565b80610d67846116c7565b604051602001610d78929190612d32565b6040516020818303038152906040525b915050919050565b600d60009054906101000a900473ffffffffffffffffffffffffffffffffffffffff1673ffffffffffffffffffffffffffffffffffffffff163373ffffffffffffffffffffffffffffffffffffffff1614610e20576040517f08c379a0000000000000000000000000000000000000000000000000000000008152600401610e1790612da2565b60405180910390fd5b610e2a82826112a6565b604051806040016040528060018152602001600a815250600b600083815260200190815260200160002060008201518160000155602082015181600101559050505050565b600080600073ffffffffffffffffffffffffffffffffffffffff16610e9384611795565b73ffffffffffffffffffffffffffffffffffffffff1603610ee9576040517f08c379a0000000000000000000000000000000000000000000000000000000008152600401610ee090612e0e565b60405180910390fd5b6000600b6000858152602001908152602001600020604051806040016040529081600082015481526020016001820154815250509050806000015181602001519250925050915091565b6000600560008473ffffffffffffffffffffffffffffffffffffffff1673ffffffffffffffffffffffffffffffffffffffff16815260200190815260200160002060008373ffffffffffffffffffffffffffffffffffffffff1673ffffffffffffffffffffffffffffffffffffffff16815260200190815260200160002060009054906101000a900460ff16905092915050565b610fcf61121f565b80600c60008473ffffffffffffffffffffffffffffffffffffffff1673ffffffffffffffffffffffffffffffffffffffff16815260200190815260200160002060006101000a81548160ff0219169083151502179055505050565b61103261121f565b600073ffffffffffffffffffffffffffffffffffffffff168173ffffffffffffffffffffffffffffffffffffffff16036110a45760006040517f1e4fbdf700000000000000000000000000000000000000000000000000000000815260040161109b9190612732565b60405180910390fd5b6110ad816112c4565b50565b60007f780e9d63000000000000000000000000000000000000000000000000000000007bffffffffffffffffffffffffffffffffffffffffffffffffffffffff1916827bffffffffffffffffffffffffffffffffffffffffffffffffffffffff191614806111235750611122826117d2565b5b9050919050565b60008061113683611795565b9050600073ffffffffffffffffffffffffffffffffffffffff168173ffffffffffffffffffffffffffffffffffffffff16036111a957826040517f7e2732890000000000000000000000000000000000000000000000000000000081526004016111a091906127c8565b60405180910390fd5b80915050919050565b60006004600083815260200190815260200160002060009054906101000a900473ffffffffffffffffffffffffffffffffffffffff169050919050565b600033905090565b61120483838360016118b4565b505050565b6000611216848484611a79565b90509392505050565b6112276111ef565b73ffffffffffffffffffffffffffffffffffffffff16611245610aeb565b73ffffffffffffffffffffffffffffffffffffffff16146112a4576112686111ef565b6040517f118cdaa700000000000000000000000000000000000000000000000000000000815260040161129b9190612732565b60405180910390fd5b565b6112c0828260405180602001604052806000815250611b96565b5050565b6000600a60009054906101000a900473ffffffffffffffffffffffffffffffffffffffff16905081600a60006101000a81548173ffffffffffffffffffffffffffffffffffffffff021916908373ffffffffffffffffffffffffffffffffffffffff1602179055508173ffffffffffffffffffffffffffffffffffffffff168173ffffffffffffffffffffffffffffffffffffffff167f8be0079c531659141344cd1fd0a4f28419497f9722a3daafe3b4186f6b6457e060405160405180910390a35050565b600073ffffffffffffffffffffffffffffffffffffffff168273ffffffffffffffffffffffffffffffffffffffff16036113fb57816040517f5b08ba180000000000000000000000000000000000000000000000000000000081526004016113f29190612732565b60405180910390fd5b80600560008573ffffffffffffffffffffffffffffffffffffffff1673ffffffffffffffffffffffffffffffffffffffff16815260200190815260200160002060008473ffffffffffffffffffffffffffffffffffffffff1673ffffffffffffffffffffffffffffffffffffffff16815260200190815260200160002060006101000a81548160ff0219169083151502179055508173ffffffffffffffffffffffffffffffffffffffff168373ffffffffffffffffffffffffffffffffffffffff167f17307eab39ab6107e8899845ad3d59bd9653f200f220920489ca2b5937696c31836040516114ec91906125c1565b60405180910390a3505050565b60008373ffffffffffffffffffffffffffffffffffffffff163b11156116aa578273ffffffffffffffffffffffffffffffffffffffff1663150b7a0261153d6111ef565b8685856040518563ffffffff1660e01b815260040161155f9493929190612e83565b6020604051808303816000875af192505050801561159b57506040513d601f19601f820116820180604052508101906115989190612ee4565b60015b61161f573d80600081146115cb576040519150601f19603f3d011682016040523d82523d6000602084013e6115d0565b606091505b50600081510361161757836040517f64a0ae9200000000000000000000000000000000000000000000000000000000815260040161160e9190612732565b60405180910390fd5b805181602001fd5b63150b7a0260e01b7bffffffffffffffffffffffffffffffffffffffffffffffffffffffff1916817bffffffffffffffffffffffffffffffffffffffffffffffffffffffff1916146116a857836040517f64a0ae9200000000000000000000000000000000000000000000000000000000815260040161169f9190612732565b60405180910390fd5b505b50505050565b606060405180602001604052806000815250905090565b6060600060016116d684611bb2565b01905060008167ffffffffffffffff8111156116f5576116f46128d9565b5b6040519080825280601f01601f1916602001820160405280156117275781602001600182028036833780820191505090505b509050600082602001820190505b60011561178a578080600190039150507f3031323334353637383961626364656600000000000000000000000000000000600a86061a8153600a858161177e5761177d612f11565b5b04945060008503611735575b819350505050919050565b60006002600083815260200190815260200160002060009054906101000a900473ffffffffffffffffffffffffffffffffffffffff169050919050565b60007f80ac58cd000000000000000000000000000000000000000000000000000000007bffffffffffffffffffffffffffffffffffffffffffffffffffffffff1916827bffffffffffffffffffffffffffffffffffffffffffffffffffffffff1916148061189d57507f5b5e139f000000000000000000000000000000000000000000000000000000007bffffffffffffffffffffffffffffffffffffffffffffffffffffffff1916827bffffffffffffffffffffffffffffffffffffffffffffffffffffffff1916145b806118ad57506118ac82611d05565b5b9050919050565b80806118ed5750600073ffffffffffffffffffffffffffffffffffffffff168273ffffffffffffffffffffffffffffffffffffffff1614155b15611a215760006118fd8461112a565b9050600073ffffffffffffffffffffffffffffffffffffffff168373ffffffffffffffffffffffffffffffffffffffff161415801561196857508273ffffffffffffffffffffffffffffffffffffffff168173ffffffffffffffffffffffffffffffffffffffff1614155b801561197b57506119798184610f33565b155b156119bd57826040517fa9fbf51f0000000000000000000000000000000000000000000000000000000081526004016119b49190612732565b60405180910390fd5b8115611a1f57838573ffffffffffffffffffffffffffffffffffffffff168273ffffffffffffffffffffffffffffffffffffffff167f8c5be1e5ebec7d5bd14f71427d1e84f3dd0314c0f7b2291e5b200ac8c7c3b92560405160405180910390a45b505b836004600085815260200190815260200160002060006101000a81548173ffffffffffffffffffffffffffffffffffffffff021916908373ffffffffffffffffffffffffffffffffffffffff16021790555050505050565b600080611a87858585611d6f565b9050600073ffffffffffffffffffffffffffffffffffffffff168173ffffffffffffffffffffffffffffffffffffffff1603611acb57611ac684611f89565b611b0a565b8473ffffffffffffffffffffffffffffffffffffffff168173ffffffffffffffffffffffffffffffffffffffff1614611b0957611b088185611fd2565b5b5b600073ffffffffffffffffffffffffffffffffffffffff168573ffffffffffffffffffffffffffffffffffffffff1603611b4c57611b4784612133565b611b8b565b8473ffffffffffffffffffffffffffffffffffffffff168173ffffffffffffffffffffffffffffffffffffffff1614611b8a57611b898585612204565b5b5b809150509392505050565b611ba0838361228f565b611bad60008484846114f9565b505050565b600080600090507a184f03e93ff9f4daa797ed6e38ed64bf6a1f0100000000000000008310611c10577a184f03e93ff9f4daa797ed6e38ed64bf6a1f0100000000000000008381611c0657611c05612f11565b5b0492506040810190505b6d04ee2d6d415b85acef81000000008310611c4d576d04ee2d6d415b85acef81000000008381611c4357611c42612f11565b5b0492506020810190505b662386f26fc100008310611c7c57662386f26fc100008381611c7257611c71612f11565b5b0492506010810190505b6305f5e1008310611ca5576305f5e1008381611c9b57611c9a612f11565b5b0492506008810190505b6127108310611cca576127108381611cc057611cbf612f11565b5b0492506004810190505b60648310611ced5760648381611ce357611ce2612f11565b5b0492506002810190505b600a8310611cfc576001810190505b80915050919050565b60007f01ffc9a7000000000000000000000000000000000000000000000000000000007bffffffffffffffffffffffffffffffffffffffffffffffffffffffff1916827bffffffffffffffffffffffffffffffffffffffffffffffffffffffff1916149050919050565b600080611d7b84611795565b9050600073ffffffffffffffffffffffffffffffffffffffff168373ffffffffffffffffffffffffffffffffffffffff1614611dbd57611dbc818486612388565b5b600073ffffffffffffffffffffffffffffffffffffffff168173ffffffffffffffffffffffffffffffffffffffff1614611e4e57611dff6000856000806118b4565b6001600360008373ffffffffffffffffffffffffffffffffffffffff1673ffffffffffffffffffffffffffffffffffffffff168152602001908152602001600020600082825403925050819055505b600073ffffffffffffffffffffffffffffffffffffffff168573ffffffffffffffffffffffffffffffffffffffff1614611ed1576001600360008773ffffffffffffffffffffffffffffffffffffffff1673ffffffffffffffffffffffffffffffffffffffff168152602001908152602001600020600082825401925050819055505b846002600086815260200190815260200160002060006101000a81548173ffffffffffffffffffffffffffffffffffffffff021916908373ffffffffffffffffffffffffffffffffffffffff160217905550838573ffffffffffffffffffffffffffffffffffffffff168273ffffffffffffffffffffffffffffffffffffffff167fddf252ad1be2c89b69c2b068fc378daa952ba7f163c4a11628f55a4df523b3ef60405160405180910390a4809150509392505050565b6008805490506009600083815260200190815260200160002081905550600881908060018154018082558091505060019003906000526020600020016000909190919091505550565b6000611fdd83610a1d565b90506000600760008481526020019081526020016000205490508181146120c2576000600660008673ffffffffffffffffffffffffffffffffffffffff1673ffffffffffffffffffffffffffffffffffffffff168152602001908152602001600020600084815260200190815260200160002054905080600660008773ffffffffffffffffffffffffffffffffffffffff1673ffffffffffffffffffffffffffffffffffffffff168152602001908152602001600020600084815260200190815260200160002081905550816007600083815260200190815260200160002081905550505b6007600084815260200190815260200160002060009055600660008573ffffffffffffffffffffffffffffffffffffffff1673ffffffffffffffffffffffffffffffffffffffff16815260200190815260200160002060008381526020019081526020016000206000905550505050565b600060016008805490506121479190612f40565b905060006009600084815260200190815260200160002054905060006008838154811061217757612176612cc7565b5b90600052602060002001549050806008838154811061219957612198612cc7565b5b9060005260206000200181905550816009600083815260200190815260200160002081905550600960008581526020019081526020016000206000905560088054806121e8576121e7612f74565b5b6001900381819060005260206000200160009055905550505050565b6000600161221184610a1d565b61221b9190612f40565b905081600660008573ffffffffffffffffffffffffffffffffffffffff1673ffffffffffffffffffffffffffffffffffffffff168152602001908152602001600020600083815260200190815260200160002081905550806007600084815260200190815260200160002081905550505050565b600073ffffffffffffffffffffffffffffffffffffffff168273ffffffffffffffffffffffffffffffffffffffff16036123015760006040517f64a0ae920000000000000000000000000000000000000000000000000000000081526004016122f89190612732565b60405180910390fd5b600061230f83836000611209565b9050600073ffffffffffffffffffffffffffffffffffffffff168173ffffffffffffffffffffffffffffffffffffffff16146123835760006040517f73c6ac6e00000000000000000000000000000000000000000000000000000000815260040161237a9190612732565b60405180910390fd5b505050565b61239383838361244c565b61244757600073ffffffffffffffffffffffffffffffffffffffff168373ffffffffffffffffffffffffffffffffffffffff160361240857806040517f7e2732890000000000000000000000000000000000000000000000000000000081526004016123ff91906127c8565b60405180910390fd5b81816040517f177e802f00000000000000000000000000000000000000000000000000000000815260040161243e929190612c9e565b60405180910390fd5b505050565b60008073ffffffffffffffffffffffffffffffffffffffff168373ffffffffffffffffffffffffffffffffffffffff161415801561250457508273ffffffffffffffffffffffffffffffffffffffff168473ffffffffffffffffffffffffffffffffffffffff1614806124c557506124c48484610f33565b5b8061250357508273ffffffffffffffffffffffffffffffffffffffff166124eb836111b2565b73ffffffffffffffffffffffffffffffffffffffff16145b5b90509392505050565b6000604051905090565b600080fd5b600080fd5b60007fffffffff0000000000000000000000000000000000000000000000000000000082169050919050565b61255681612521565b811461256157600080fd5b50565b6000813590506125738161254d565b92915050565b60006020828403121561258f5761258e612517565b5b600061259d84828501612564565b91505092915050565b60008115159050919050565b6125bb816125a6565b82525050565b60006020820190506125d660008301846125b2565b92915050565b600081519050919050565b600082825260208201905092915050565b60005b838110156126165780820151818401526020810190506125fb565b60008484015250505050565b6000601f19601f8301169050919050565b600061263e826125dc565b61264881856125e7565b93506126588185602086016125f8565b61266181612622565b840191505092915050565b600060208201905081810360008301526126868184612633565b905092915050565b6000819050919050565b6126a18161268e565b81146126ac57600080fd5b50565b6000813590506126be81612698565b92915050565b6000602082840312156126da576126d9612517565b5b60006126e8848285016126af565b91505092915050565b600073ffffffffffffffffffffffffffffffffffffffff82169050919050565b600061271c826126f1565b9050919050565b61272c81612711565b82525050565b60006020820190506127476000830184612723565b92915050565b61275681612711565b811461276157600080fd5b50565b6000813590506127738161274d565b92915050565b600080604083850312156127905761278f612517565b5b600061279e85828601612764565b92505060206127af858286016126af565b9150509250929050565b6127c28161268e565b82525050565b60006020820190506127dd60008301846127b9565b92915050565b6000806000606084860312156127fc576127fb612517565b5b600061280a86828701612764565b935050602061281b86828701612764565b925050604061282c868287016126af565b9150509250925092565b60006020828403121561284c5761284b612517565b5b600061285a84828501612764565b91505092915050565b61286c816125a6565b811461287757600080fd5b50565b60008135905061288981612863565b92915050565b600080604083850312156128a6576128a5612517565b5b60006128b485828601612764565b92505060206128c58582860161287a565b9150509250929050565b600080fd5b600080fd5b7f4e487b7100000000000000000000000000000000000000000000000000000000600052604160045260246000fd5b61291182612622565b810181811067ffffffffffffffff821117156129305761292f6128d9565b5b80604052505050565b600061294361250d565b905061294f8282612908565b919050565b600067ffffffffffffffff82111561296f5761296e6128d9565b5b61297882612622565b9050602081019050919050565b82818337600083830152505050565b60006129a76129a284612954565b612939565b9050828152602081018484840111156129c3576129c26128d4565b5b6129ce848285612985565b509392505050565b600082601f8301126129eb576129ea6128cf565b5b81356129fb848260208601612994565b91505092915050565b60008060008060808587031215612a1e57612a1d612517565b5b6000612a2c87828801612764565b9450506020612a3d87828801612764565b9350506040612a4e878288016126af565b925050606085013567ffffffffffffffff811115612a6f57612a6e61251c565b5b612a7b878288016129d6565b91505092959194509250565b6000604082019050612a9c60008301856127b9565b612aa960208301846127b9565b9392505050565b60008060408385031215612ac757612ac6612517565b5b6000612ad585828601612764565b9250506020612ae685828601612764565b9150509250929050565b7f4e487b7100000000000000000000000000000000000000000000000000000000600052602260045260246000fd5b60006002820490506001821680612b3757607f821691505b602082108103612b4a57612b49612af0565b5b50919050565b7f43616c6c6572206973206e6f74206f776e6572206e6f7220617070726f766564600082015250565b6000612b866020836125e7565b9150612b9182612b50565b602082019050919050565b60006020820190508181036000830152612bb581612b79565b9050919050565b7f4e487b7100000000000000000000000000000000000000000000000000000000600052601160045260246000fd5b6000612bf68261268e565b91507fffffffffffffffffffffffffffffffffffffffffffffffffffffffffffffffff8203612c2857612c27612bbc565b5b600182019050919050565b6000612c3e8261268e565b9150612c498361268e565b9250828201905080821115612c6157612c60612bbc565b5b92915050565b6000606082019050612c7c6000830186612723565b612c8960208301856127b9565b612c966040830184612723565b949350505050565b6000604082019050612cb36000830185612723565b612cc060208301846127b9565b9392505050565b7f4e487b7100000000000000000000000000000000000000000000000000000000600052603260045260246000fd5b600081905092915050565b6000612d0c826125dc565b612d168185612cf6565b9350612d268185602086016125f8565b80840191505092915050565b6000612d3e8285612d01565b9150612d4a8284612d01565b91508190509392505050565b7f4f6e6c792043686172616374657253686f702063616e206d696e740000000000600082015250565b6000612d8c601b836125e7565b9150612d9782612d56565b602082019050919050565b60006020820190508181036000830152612dbb81612d7f565b9050919050565b7f546f6b656e20646f6573206e6f74206578697374000000000000000000000000600082015250565b6000612df86014836125e7565b9150612e0382612dc2565b602082019050919050565b60006020820190508181036000830152612e2781612deb565b9050919050565b600081519050919050565b600082825260208201905092915050565b6000612e5582612e2e565b612e5f8185612e39565b9350612e6f8185602086016125f8565b612e7881612622565b840191505092915050565b6000608082019050612e986000830187612723565b612ea56020830186612723565b612eb260408301856127b9565b8181036060830152612ec48184612e4a565b905095945050505050565b600081519050612ede8161254d565b92915050565b600060208284031215612efa57612ef9612517565b5b6000612f0884828501612ecf565b91505092915050565b7f4e487b7100000000000000000000000000000000000000000000000000000000600052601260045260246000fd5b6000612f4b8261268e565b9150612f568361268e565b9250828203905081811115612f6e57612f6d612bbc565b5b92915050565b7f4e487b7100000000000000000000000000000000000000000000000000000000600052603160045260246000fdfea26469706673582212206f249af35d5bf33151db6e19379510c5639168b8ee78b9a0874c86cef6408f2164736f6c63430008180033",
  "linkReferences": {},
  "deployedLinkReferences": {}
}